:100000000C9434000C9446000C9446000C9446006A
:100010000C9446000C9446000C9446000C94460048
:100020000C9446000C9446000C9446000C94DB00A3
:100030000C9446000C9446000C9446000C94460028
:100040000C9446000C9446000C9446000C94460018
:100050000C9446000C9446000C9446000C94460008
:100060000C9446000C94460011241FBECFEFD8E03C
:10007000DEBFCDBF21E0A0E0B1E001C01D92AA31FA
:10008000B207E1F70E9423010C9426010C940000B2
:100090008FE390E09093C5008093C400E1ECF0E022
:1000A00080818860808386E08093C200089590916B
:1000B000C00095FFFCCF8093C6000895CF93282FF2
:1000C00022952F7090E3920F8F70C0E3C80F9A3380
:1000D00014F097E3920FCA3314F0C7E3C80F892FC7
:1000E0000E9457008C2F0E94570080E2CF910C9401
:1000F00057008091C00087FDFCCF8091C600089515
:10010000CF93DF93EC018991882319F00E94570067
:10011000FACFDF91CF91089580917C0080937C008D
:1001200080917C00807F80937C0080917A00806445
:1001300080937A0080917A0086FDFCCF209179002F
:1001400081E090E02F3F11F480E090E008950E945C
:100150004800ECE7F0E080818064808380818F77C5
:100160008083808180628083EAE7F0E0808187601D
:100170008083808180688083109215011092140121
:100180001092170110921601E1E8F0E0808188607A
:100190008083EFE6F0E0808182608083789480E85D
:1001A00097E09093890080938800E1E8F0E08081F7
:1001B0008460808308951F920F920FB60F921124CE
:1001C0002F933F934F935F936F937F938F939F935F
:1001D000AF93BF93EF93FF930E948C00892BF1F0B4
:1001E0008091160190911701892B71F481E090E0C4
:1001F0009093170180931601109219011092180123
:1002000081E10E945E000EC0809118019091190159
:100210000196909319018093180104C01092170160
:1002200010921601FF91EF91BF91AF919F918F9125
:100230007F916F915F914F913F912F910F900FBEE2
:100240000F901F9018950E94A700FFCFF894FFCF42
:00000001FF
