:100000000C9434000C943E000C943E000C943E0082
:100010000C943E000C943E000C943E000C943E0068
:100020000C943E000C943E000C943E000C943E0058
:100030000C943E000C943E000C943E000C943E0048
:100040000C943E000C943E000C943E000C943E0038
:100050000C943E000C943E000C943E000C943E0028
:100060000C943E000C943E0011241FBECFEFD8E04C
:10007000DEBFCDBF0E94C1000C94FA000C940000BA
:1000800080E58CBD0895209889E999E00197F1F702
:1000900000C0209A9FEF2FEF85E0915020408040D4
:1000A000E1F700C000C008951CBC08958EBD0DB4DA
:1000B00007FEFDCF8EB508950C94560029980E9436
:1000C0005600299A08950E94430081E10E945E0033
:1000D0002FEF8FE794E0215080409040E1F700C07F
:1000E00000008AE30E945E0085E00E94560089E2DB
:1000F0000C945E008FE390E09093C5008093C40061
:10010000E1ECF0E080818860808386E08093C2002B
:1001100008959091C00095FFFCCF8093C60008958C
:10012000CF93282F22952F7090E3920F8F70C0E30A
:10013000C80F9A3314F097E3920FCA3314F0C7E351
:10014000C80F892F90E00E9489008C2F90E00E94B8
:10015000890080E290E0CF910C9489008091C000EA
:1001600087FDFCCF8091C6000895CF93DF93EC010B
:100170008991882319F00E948900FACFDF91CF91ED
:1001800008950E947A00579A80917C008064809341
:100190007C0080917C008F7780937C0080917C0034
:1001A000806280937C0080917A00876080937A00DF
:1001B00080917A00806880937A0020E030E080911E
:1001C0007A00806480937A0080917A0086FDFCCF6B
:1001D00080917900E9E9F9E03197F1F700C01092D8
:1001E000C6008F3F51F3232B11F40E94900021E0B1
:0801F00030E0E5CFF894FFCFE9
:00000001FF
