:100000000C9434000C943E000C943E000C943E0082
:100010000C943E000C943E000C943E000C943E0068
:100020000C943E000C943E000C943E000C943E0058
:100030000C943E000C943E000C943E000C943E0048
:100040000C943E000C943E000C943E000C943E0038
:100050000C943E000C943E000C943E000C943E0028
:100060000C943E000C943E0011241FBECFEFD8E04C
:10007000DEBFCDBF0E9484000C94BC000C94000035
:100080008FE390E09093C5008093C400E1ECF0E032
:1000900080818860808386E08093C200089590917B
:1000A000C00095FFFCCF8093C6000895CF93282F02
:1000B00022952F7090E3920F8F70C0E3C80F9A3390
:1000C00014F097E3920FCA3314F0C7E3C80F892FD7
:1000D0000E944F008C2F0E944F0080E2CF910C9421
:1000E0004F008091C00087FDFCCF8091C60008952D
:1000F000CF93DF93EC018991882319F00E944F0080
:10010000FACFDF91CF9108950E94400080917C004A
:10011000806480937C0080917C008F7780937C004A
:1001200080917C00806280937C0080917A0087605F
:1001300080937A0080917A00806880937A0020E032
:1001400030E080917A00806480937A0080917A0018
:1001500086FDFCCF80917900E9E9F9E03197F1F76C
:1001600000C01092C6008F3F51F3232B11F40E9460
:0C017000560021E030E0E5CFF894FFCF0E
:00000001FF
